{
  "transactions": [
    {
      "hash": "0x6a86f5e70d979cc56b31cb244195afab51d528ce9d580722a152de0f1dfbc10d",
      "transactionType": "CALL",
      "contractName": null,
      "contractAddress": "0x0e5eb29bee48cf28b88fbce1036871904bd8a00b",
      "function": "applyChainUpdates((uint64,bool,bytes,bytes,(bool,uint128,uint128),(bool,uint128,uint128))[])",
      "arguments": [
        "[(6898391096552792247, true, 0x000000000000000000000000fbcc576d0f194d22bb81f59771ac89d137838463, 0x000000000000000000000000e11ad81d6adb46fb058716575001380d76499191, (false, 0, 0), (false, 0, 0))]"
      ],
      "transaction": {
        "from": "0xedee7b88d90cdca602bcfb6c4993ec1d643af05a",
        "to": "0x0e5eb29bee48cf28b88fbce1036871904bd8a00b",
        "gas": "0x525dc",
        "value": "0x0",
        "input": "0xdb6327dc0000000000000000000000000000000000000000000000000000000000000020000000000000000000000000000000000000000000000000000000000000000100000000000000000000000000000000000000000000000000000000000000200000000000000000000000000000000000000000000000005fbc02272fbf20b70000000000000000000000000000000000000000000000000000000000000001000000000000000000000000000000000000000000000000000000000000014000000000000000000000000000000000000000000000000000000000000001800000000000000000000000000000000000000000000000000000000000000000000000000000000000000000000000000000000000000000000000000000000000000000000000000000000000000000000000000000000000000000000000000000000000000000000000000000000000000000000000000000000000000000000000000000000000000000000000000000000000000000000000000000000000000000000000000000000000000000000000000000000000000000000000000000000000000000000000000000000000000000000000000000000000000020000000000000000000000000fbcc576d0f194d22bb81f59771ac89d1378384630000000000000000000000000000000000000000000000000000000000000020000000000000000000000000e11ad81d6adb46fb058716575001380d76499191",
        "nonce": "0x2b",
        "chainId": "0xaa36a7"
      },
      "additionalContracts": [],
      "isFixedGasLimit": false
    }
  ],
  "receipts": [
    {
      "status": "0x1",
      "cumulativeGasUsed": "0x25f899c",
      "logs": [
        {
          "address": "0x0e5eb29bee48cf28b88fbce1036871904bd8a00b",
          "topics": [
            "0x8d340f17e19058004c20453540862a9c62778504476f6756755cb33bcd6c38c2"
          ],
          "data": "0x0000000000000000000000000000000000000000000000005fbc02272fbf20b700000000000000000000000000000000000000000000000000000000000001000000000000000000000000000000000000000000000000000000000000000000000000000000000000000000000000000000000000000000000000000000000000000000000000000000000000000000000000000000000000000000000000000000000000000000000000000000000000000000000000000000000000000000000000000000000000000000000000000000000000000000000000000000000000000000000000000000000000000000000000000000000000000000000000000000000000000000000000000000000000000000000000000000000000000020000000000000000000000000e11ad81d6adb46fb058716575001380d76499191",
          "blockHash": "0x8ef848db1dbe54c3c6d4675080a41d4f74a937db9e1c43d4e178e41dd83c2649",
          "blockNumber": "0x7f0586",
          "blockTimestamp": "0x682472b8",
          "transactionHash": "0x6a86f5e70d979cc56b31cb244195afab51d528ce9d580722a152de0f1dfbc10d",
          "transactionIndex": "0xe0",
          "logIndex": "0x2ba",
          "removed": false
        }
      ],
      "logsBloom": "0x00000000000000400000000000000000000000000000040000000000000000000000000000000000000000000000000000000000000000000004000000000000000000000000000000000000000000000000000000000000000000000000000000000000000000000000000000000000000100000000000000000000000000000000000000000000000000000000000000000000000000000000000000000000000000000000000000000000000000000000040000000000000000000000000000000000000000000000000000000000000000000000000000000000000000000000000000000000000000000000000000000000000000000100000000000000",
      "type": "0x2",
      "transactionHash": "0x6a86f5e70d979cc56b31cb244195afab51d528ce9d580722a152de0f1dfbc10d",
      "transactionIndex": "0xe0",
      "blockHash": "0x8ef848db1dbe54c3c6d4675080a41d4f74a937db9e1c43d4e178e41dd83c2649",
      "blockNumber": "0x7f0586",
      "gasUsed": "0x3ba1c",
      "effectiveGasPrice": "0x1739d0a57",
      "from": "0xedee7b88d90cdca602bcfb6c4993ec1d643af05a",
      "to": "0x0e5eb29bee48cf28b88fbce1036871904bd8a00b",
      "contractAddress": null
    }
  ],
  "libraries": [],
  "pending": [],
  "returns": {},
  "timestamp": 1747219129,
  "chain": 11155111,
  "commit": null
}